:020000040800F2
:100000001008002079010008D5270008C92300083E
:1000100000000000000000000000000000000000E0
:10002000000000000000000000000000D9270008C8
:100030000000000000000000D72700082928000861
:100040008B010008000000008B0100088B010008F4
:100050008B0100088B0100088B010008591500086E
:10006000000000008B0100088B0100088B010008D4
:100070008B0100088B0100088B01000800000000C4
:100080008B0100088B010008000000008B010008B4
:100090008B0100088B0100088B0100088B01000810
:1000A0008B0100088B0100088B0100088B01000800
:1000B0008B01000800F002F800F04EF80CA030C8E8
:1000C000083824182D18A246671EAB4654465D46D4
:1000D000AC4201D100F040F87E460F3E0FCCB64650
:1000E0000126334200D0FB1AA246AB4633431847E1
:1000F0001C2F00003C2F0000103A02D378C878C1B2
:10010000FAD8520701D330C830C101D504680C6059
:10011000704700000023002400250026103A01D378
:1001200078C1FBD8520700D330C100D50B607047AF
:1001300010B5662902D102F0F5FE10BD002010BDF9
:100140001FB500F0EDFC04000020002102F0FCFDD2
:10015000E0601FBD10B510BD01F0CCF81146FFF7EF
:10016000EFFF02F015FD01F0E4F803B4FFF7F2FF32
:1001700003BC01F05BF900000748804707480047CF
:10018000FEE7FEE7FEE7FEE7FEE7FEE70448054977
:10019000054A064B70470000C1280008B50000085A
:1001A000100200201008002010040020100400207D
:1001B000FEB5054610460C46184373D0AE468C4635
:1001C0000020AD1A01469C4167D3664600270124F2
:1001D0003D46B61A9D4102D313463A462124654650
:1001E00076462F04360C3E432D0CB61A9D4104D39F
:1001F000150C1B042B4312041034654676462F065B
:10020000360A3E432D0AB61A9D4104D3150E1B0231
:100210002B4312020834654676462F0736093E43C3
:100220002D09B61A9D4104D3150F1B012B43120152
:10023000241D65467646AF07B6083E43AD08B61A9C
:100240009D4104D3950F9B002B439200A41C65464F
:100250007646EF0776083E436D08B61A9D411AD3DD
:1002600092185B41641C16E00018764665464941C9
:10027000B71A9D410191009009D36046B11A984187
:100280008E468446009801990025401C6941DD078F
:1002900052082A435B08641EE6D57246634603B0E3
:1002A000F0BDFFE700200146C046C0462A4623466F
:1002B000F5E700000FB41CB5074B06AA7B4469465E
:1002C0000090059800F0E1FB0020694600F0F0FB8B
:1002D0001CBC08BC04B01847F1070000F3B5044685
:1002E000002081B020622046E168884700287DD048
:1002F000252802D06268A16883E0454F00257F442D
:100300002046E16888472028064608DB312E06D2C1
:10031000B81920380078002801D00543F0E7A80775
:1003200001D5042085430020E0610746A0612A2E04
:100330000AD0304602F09AFB002827D0B8000019F6
:10034000303E0090866119E00298BA00121902C886
:10035000916102902046E1688847012F064617D137
:10036000E06900281FDA202085431CE000980A215C
:100370008069484300998019303888612046E168D7
:100380008847064602F072FB0028EFD1012F0AD001
:100390002E2E08D12046E1688847064620200543D6
:1003A0007F1C022FC3DBA069002803DA4042A06152
:1003B00001200543E80701D010208543002E24D0FA
:1003C00030464138192803D80120C00205432036A1
:1003D000204625603146029A1546FFF7A9FE0028FF
:1003E0000CD0012807D0ED1DE80800E00DE0C000AA
:1003F0000830029077E72D1D029574E76268304659
:10040000A1689047206A401C6CE7206AFEBD00008E
:10041000622C000001E004C0091F0429FBD28B07F5
:1004200001D50280801CC90700D0027070470029E6
:100430000BD0C30702D00270401C491E022904D30E
:10044000830702D50280801C891EE3E70022EEE7C5
:100450000022DFE7002203098B422CD3030A8B42E0
:1004600011D300239C464EE003460B433CD40022AC
:1004700043088B4231D303098B421CD3030A8B42BE
:1004800001D394463FE0C3098B4201D3CB01C01A8C
:10049000524183098B4201D38B01C01A5241430957
:1004A0008B4201D34B01C01A524103098B4201D345
:1004B0000B01C01A5241C3088B4201D3CB00C01AB2
:1004C000524183088B4201D38B00C01A524143082A
:1004D0008B4201D34B00C01A5241411A00D201464F
:1004E0005241104670475DE0CA0F00D049420310E8
:1004F00000D34042534000229C4603098B422DD337
:10050000030A8B4212D3FC22890112BA030A8B42DE
:100510000CD3890192118B4208D3890192118B422D
:1005200004D389013AD0921100E08909C3098B42B2
:1005300001D3CB01C01A524183098B4201D38B01F5
:10054000C01A524143098B4201D34B01C01A524198
:1005500003098B4201D30B01C01A5241C3088B42DD
:1005600001D3CB00C01A524183088B4201D38B00C8
:10057000C01A5241D9D243088B4201D34B00C01A52
:100580005241411A00D20146634652415B10104667
:1005900001D34042002B00D54942704763465B10AF
:1005A00000D3404201B50020C046C04602BD70479E
:1005B000704770470121C9050123411842001B06FD
:1005C000D3185B0E0AD0C1100722D2068918400743
:1005D0005242D14201D5520089187047090208D50C
:1005E0000146002A03D0C10FC907002070471046FA
:1005F0007047420202D000200249704707210905D6
:100600000143F4E70000F87F1F22030C02D10F2200
:1006100000041CD0030E01D10002083A030F01D1DF
:100620000001121F830F01D18000921E002801DB00
:100630004000521ED2055118021251181922904042
:1006400004D3491C002801D14908490008467047D5
:10065000C10FC90700D04042012292071143D3E7DE
:1006600001218907D0E700007047FFB50C461E4600
:100670008FB003CA089009914F007D0D00D16D1E07
:10068000002108460020C0460321099A8905084038
:10069000002A03DA8200801840080840800D0128F3
:1006A0000A9002DD0020C0430A90089807430DD04D
:1006B000F048F149281848430714189800281DD01D
:1006C0007542291E1DDD0A9842421BE01898012838
:1006D00002D00020302104E00020F24305E0215444
:1006E000401CB042FBDB30460022189B0021215405
:1006F0000F998B600A60486013B0F0BDBD1B6D1C84
:10070000DFE70A9A002900DA69420BA800F08EFAA6
:100710000BAB07CB03AB07C30899099800F0F2FABB
:100720006B4607C30146D5480918002D00910BDD23
:10073000D24903980A9A49424018002303A903901A
:10074000684600F04FFD08E003990A9A0023081854
:1007500003A90390684600F0EFFC6B4607C3000452
:10076000000C03D00020C043410800E01046189A56
:10077000002A03D00022009215461EE0751E05D403
:1007800000F0D2F9303262556D1EF9D501220843CE
:10079000079602D000227F1C04E02078302801D187
:1007A00000227F1E002A069787D01EE0112D07DA4F
:1007B00000F0BAF9303262556D1C02460A43F5D199
:1007C000084303D00098002819D00EE00021681ECD
:1007D00005E0235C625C63542254401E491C814244
:1007E000F7DBA81B401E07950690079A1899002072
:1007F000A0540F98079B069A81600CC07CE71126D5
:100800000020189059E7D21DF0B50D460446D108D6
:1008100093B0C90003C90C900D9102F0EFF80246A5
:100820000D98C00F01D02D2007E02068810701D569
:100830002B2002E04007C00F4001032A0F9001D097
:10084000072A05DB03462946204600F0ABF90EE1F6
:100850002078800601D5E76900E006272846652D47
:1008600004D0662814D0672D69D12DE00020112F07
:10087000009001DB112300E07B1C0CAA03A910A847
:10088000FFF7F3FE1199002610987D1C0E9142E0AF
:1008900001203B460CAAC0070B900120009003A941
:1008A00010A8FFF7E2FE119D12981099002600286B
:1008B0000E9501D1781C0D18781B02D446427D1C80
:1008C000761EE81B00903AE0012F00DA0127002095
:1008D000112F009001DD112300E03B460CAA03A973
:1008E00010A8FFF7C2FE11993D46109800260E9100
:1008F000217809070BD40E99A94200DA0D4603A905
:10090000012D04DD4A19203AD27F302A06D0B842A0
:1009100001DA011D04DA012100910FE06D1EEFE7FD
:10092000002802DC86192D1A03E0411CA94200DDD3
:100930000D46801B401C00900120C0070B902078C2
:10094000000705D40098A84202DB0020C0430090B5
:1009500069460020C8720B98012102AF0337C9070E
:10096000884225D0022010902B2011900B9800284F
:100970000BDA40420B902D20119006E00B9800F00E
:1009800081FC30317F1E0B9039701099481E002970
:100990001090F3DC0B980028F0D111987F1E38706E
:1009A0002088000501D5452000E065207F1E3870B5
:1009B00001A8C01BC01D0B900F98002800D001207B
:1009C00041190098C01709180B980818A169081A4E
:1009D000401EA0612078C00602D42046C046C04612
:1009E0000F98002805D06268A1689047206A401CD3
:1009F00020622078C00625D52046C046C04621E0AA
:100A0000002E07DB0E98B04204DD03A86268805D0B
:100A1000A16802E06268A16830209047206A761CD5
:100A2000401C20620098401E002800900AD100F06F
:100A300077F8C06862680168405CA1689047206AE6
:100A4000401C206228466D1E0028D9DC07E0626841
:100A50003878A1687F1C9047206A401C20620B995F
:100A6000481E00290B90F2DC2046C046C0460320F9
:100A700042E6000001FCFFFF104D0000E1DFFFFF38
:100A800001694A1C02610878704700B58FB0029175
:100A90000021059105490193794403911146049081
:100AA0006846FFF71BFC0FB000BD0000E5FFFFFF2D
:100AB0000A681070521C0A607047000010B5FF23CE
:100AC0001B0644009C421DD84C009C421AD8034689
:100AD000124A0B4307D4401A02D3EFF3008010BD33
:100AE000EFF3008010BD081A06D2EFF30080012159
:100AF0009043C907084302E0EFF30080904380F37E
:100B0000008810BD0D231B041A4204D0114600209A
:100B100000F0CCFB10BD00F0E1FB10BD0000009028
:100B200000487047CC0100200B4670B5024689078B
:100B30008008084319469D08141AA9412509080789
:100B4000054308092C194841250A01060D43010AED
:100B50002C194141200C0D0428430D0C00194D4166
:100B6000002140194D41C00869070843E908840F76
:100B70008D002543840024184D4124196D41121B1A
:100B8000AB4107E00925ED432C11521963410024C4
:100B9000401C61411C460A250026551BB441F1D278
:100BA00070BD0000F8B51F46044601230068DB0253
:100BB000032601461840072A05DB002801D017A5A7
:100BC00006E017A504E0002801D016A500E016A550
:100BD000102081432160A069C01E002FA06101D0B8
:100BE000401EA0612046C046C046002F09D03846AE
:100BF0006268A1689047206A401C2062C01C206285
:100C000006E0206AFAE762682878A1686D1C9047C0
:100C1000761EF8D22046C046C046F8BD4E414E0072
:100C20006E616E00494E4600696E6600F7B5164665
:100C30008AB0334878446C4603467C33C06F5A68A8
:100C40009B680DC42E487844763003AC0DC80DC4A3
:100C50003720C001081837211B30FFF705FC054677
:100C60000C46803D1B3C02D56442012000E0002080
:100C70000027099010E0E0070CD00C2020497843B1
:100C8000794432464C3941186846012300F054FA41
:100C90006B4607C364107F1C002CECD1184F7F44B7
:100CA0002E3F16E0E80712D02001C0190EC80691A9
:100CB000089307920068F04201D1981908903246D3
:100CC000012306A903A800F037FA03AB07C36D1090
:100CD000641C002DE6D10998002806D032466946EA
:100CE000012303A800F07EFA05E00123324669469D
:100CF00003A800F021FA0A9B07C30DB0F0BD000065
:100D000040230000034640000A4610B5400D0BD0BA
:100D10000121C9070F24A40200191C036408214300
:100D2000540D2143D20207E000210120F2E7D40F45
:100D3000490021435200401E0029F8DADB0FDB078F
:100D4000184310BDFFB50D46144685B0486851687C
:100D500001F03BFE00910190A868A16801F035FE0A
:100D600002910390A868616801F02FFE029A1218A0
:100D70008242029201D2012000E00020019A0B1869
:100D8000D2180028019202D08A4202D903E08A4296
:100D900001D2012000E00020009908180090686846
:100DA000A16801F012FE029A12188242029201D248
:100DB000012000E00020019A0B18D21800280192AF
:100DC00002D08A4202D903E08A4201D2012000E027
:100DD0000020009908180090286821684000490008
:100DE000400849084018FA49471814E001994000A2
:100DF000C90F08430090019802994000C90F0843A9
:100E00000190029803994000C90F0843029003988B
:100E100040007F1E039000980028E7DA0898002819
:100E200001D0EC4E00E00026B74201DA012000E0DC
:100E30000020002804902AD0F71BF806C00E15D019
:100E4000029B2021091A039A8B401A430392029AAB
:100E5000019BC2408B401A430292019A009BC24000
:100E60008B4000991A430192C14000917B110DD033
:100E70006F460320C11A03D500218200B95003E058
:100E80008A008100BA587A50401EF3D5374603983D
:100E90000299002800D001200143089802910028FF
:100EA00008460CD0002800D001200199019A49057C
:100EB00008430121D20AC902D202019200E00121B5
:100EC0000E9B0122D207012B02D0002B03D013E08E
:100ED000002807D120E0904204D890420CD1019B19
:100EE0000B4209D0019B5918019105D10099491C69
:100EF000009101D17F1C009200280DD010210846DE
:100F00000020C0460498002806D00F98002803D07F
:100F1000082108460020C04628682168019B009AE5
:100F20004840C10F0598C90739430EC009B0F0BD4C
:100F3000FFB587B0099A0898089953689268406885
:100F4000896896460022039317469446089A1268C9
:100F50005300099A5B081268520052089A1A9E4B75
:100F6000D4180A9A002A01D0352200E040220692C5
:100F70000022012315460492DB07059324E0002D8F
:100F800005D175460346039E4D1BB34109D37546F3
:100F90006646039B491B049D9841059B7519AC4609
:100FA0005F4163463B4308D0059B049EDD077608FE
:100FB0002E435B080496059301E0521E641EC50F84
:100FC000ED0749184041521C069B9A42D7DB002D81
:100FD00004D17546039A6B1A824101D203200CE0BA
:100FE000039A0B466B404240134303D0014303D0A6
:100FF000012002E0022000E0002061460191002172
:10100000009702910A99002905D0614640020143E8
:10101000704B019102E08007002302909C4201DAAC
:10102000012000E0002007003AD01A1BD006C00EB5
:1010300015D0029D2021019C091AC5408C402543F2
:10104000029C8C4000D001242543019C0295009D08
:10105000C4408D4000992C430194C140009154112B
:101060001DD06D460221002202290CD10320001B55
:1010700007E0002804DB8600AE59002E00D00122D4
:10108000401C0328F5DB081B02D588002A5004E029
:101090008000285810438A00A850491EE3D51C46FA
:1010A0000A98002802980CD0002800D0012001994D
:1010B000019A490508430121D20AC902D2020192CC
:1010C00000E00121109B0122D207012B02D0002B4E
:1010D00003D013E0002807D11FE0904204D89042CB
:1010E0000CD1019B0B4209D0019B5918019105D1EC
:1010F0000099491C009101D1641C009200280CD079
:10110000102108460020C046002F06D01198002864
:1011100003D0082108460020C04608980999019A82
:10112000009B006809684840C10F0798C907214320
:1011300082600AC00BB0F0BD00B585B0019300928B
:101140000A460146002302A8FFF7FCFD02A807C8D3
:1011500005B000BDFFB50A461F4685B0079901934B
:1011600001230091014602A8FFF7ECFD02990398C4
:10117000049ECA0F4900D20700920F22490892022A
:101180008C1A0021002800DB0C46450013486D082E
:10119000844214D3079A002A04DA441E0026104D14
:1011A000F64302E004460D460E4610210846002094
:1011B000C046002F03D0042108460020C046200569
:1011C000E90A0843009908436905F20A1143ADE6AC
:1011D00002C0FFFF013C0000FF3F0000FF070000CE
:1011E000FFFFFF7F00B585B0019300920A460146DC
:1011F000002302A8FFF79CFE02A807C8A8E7FFB5D6
:101200000A461F4685B007990193012300910146C4
:1012100002A8FFF78DFE02990398049ECA0F4900A9
:10122000D20700920F22490892028C1A002100284E
:1012300000DB0C46450011486D08844214D3079A20
:10124000002A04DA441E00260D4DF64302E004464F
:101250000D460E46102108460020C046002F03D040
:10126000042108460020C0462005E90A08430099E9
:1012700008436905F20A114358E60000FF07000021
:10128000FFFFFF7F01468008081A02091018020AB2
:101290001018020C1018C008820012185200891A87
:1012A00001E0401C0A390A29FBD27047C80212D556
:1012B0004803400F002804D0C803C04301218840E0
:1012C0007047EFF30080000100090321090708437C
:1012D00080F30088704700207047000010B5024876
:1012E00000F074F810BD00000000C07F0048704797
:1012F000AC0100207546FFF7F9FFAE4605006946D0
:101300005346C008C000854618B020B5FEF73EFF22
:1013100060BC00274908B6460026C0C5C0C5C0C588
:10132000C0C5C0C5C0C5C0C5C0C5403D49008D468B
:10133000704710B50446C046C0462046FEF715FF6C
:1013400010BD0000024670B50A4392072AD11E4D17
:10135000EE0104C808C9541B9443344017D0D0B2DE
:10136000D9B2401A2106014310D190B299B2401A65
:10137000210401430AD110021902000A090A401A85
:101380002102014302D1100E190E401A70BD9A427B
:10139000DFD010BA19BA884201D9012070BD0020EF
:1013A000C04370BD02780B78401C491C002A09D04C
:1013B0009A4207D102780B78401C491C002A01D0C0
:1013C0009A42EFD0D01A70BD0101010110B50C4650
:1013D0001107090F092904D00A290AD008290CD1BC
:1013E00004E011460820FFF761FF06E0510606D52C
:1013F00001E0510601D50120C007214610BDD106EC
:1014000007D501010909CC084907000E000604436D
:1014100009E0410F20024907000A0143200E00069F
:101420001D22D14101430846E7E700000149182089
:10143000ABBEFEE726000200704710B500F032FF99
:1014400010BD10B5036800225A627D22D20003E06D
:1014500003685C6A9442FCD30B46491E89B2002B98
:10146000F6D110BD036800225A620068426A8A42BF
:10147000FCD3704770B5002428211048FFF7F2FF15
:101480000925ED060421284600F0C4F900280CD1F6
:1014900050210A48FFF7E6FF0421284600F0BAF978
:1014A000002801D0012400E0FF240421284600F098
:1014B000B1F90028F9D1204670BD00009C00002041
:1014C000F8B5002401260927FF060421384600F05C
:1014D000A1F90028F9D028211048FFF7C3FF042103
:1014E000384600F097F9002811D00720011B30463C
:1014F00088402843C5B20421384600F08BF9002803
:10150000F9D1641CE4B2082CDFD32846F8BD0720CB
:10151000011B304688408543EDE700009C00002019
:1015200010B501F06DF90924E406002204212046DB
:1015300000F075F914210748FFF783FF0122042109
:10154000204600F06CF928210248FFF78BFF01F0DC
:1015500044F910BD9C00002010B5102000F07CF86C
:10156000202000F079F8402000F076F8802000F08C
:1015700073F810BD70B5044600F058F90546601CBC
:1015800002D004480078241800F050F9401BA04213
:10159000FAD370BD3800002070B5054600F046F95A
:1015A0007F21C9052B4C102D18D0202D28D00521C6
:1015B00009230902DB06402D35D0802D30D1626B26
:1015C000821A322A2CD36063E07800283ED00020B3
:1015D000E07000283CD0206A606230E0A26A821A83
:1015E000322A1DD3A0626078002807D000206070E6
:1015F000002815D0206A01F0BDFB10E00120F6E7BD
:10160000E26A821A322A0BD3E062A078002808D05E
:101610000020A070002803D0206A01F01BFC20628B
:1016200070BD0120F5E7226B821A322AF8D32063BD
:101630002079002808D000202071002808D001223D
:10164000184600F0ECF870BD0120F5E70120BFE777
:101650000022F5E70000002010B504494A69024263
:1016600002D04861FFF798FF10BD00000004014060
:10167000F8B5002303240125BAE02E469E40B44667
:1016800032407CD00E79B607B60F012E01D0022E63
:1016900017D186682746B6465E00B7400096764664
:1016A000BE43B646CF68009EB74076463743876054
:1016B00046686746BE430F79FF06FF0F9F403743DA
:1016C00047600E79F643B6070ED0C6682746B44683
:1016D0005E00B646B7406646BE43B4468F6876465F
:1016E000B74066463743C7600E79B607B60F022E7D
:1016F00014D1DE08B60036180096366A5F07B44685
:10170000FE0E0F27B646B7406646BE43B4460F6985
:101710007646B74066463743009E376206682746DE
:10172000B4465E00B646B7406646BE430F79B4463F
:10173000BF07BF0F7646B7406646374307604E681F
:10174000B603B60F53D02D4FBE692E43BE61BE699E
:101750009F08F607F60F2A4EBF00BE190096B6681E
:101760000F27B4469E07360FB646B7406646BE43BF
:101770000927FF06B446B84202D1002710E036E040
:10178000204FB84201D101270AE01F4FB84201D1D2
:10179000022705E01D4FB84201D1032700E00527CD
:1017A0007646B74066463743009EB760184EB66827
:1017B0004F689643FF0200D51643154FBE60FE6882
:1017C0004F689643BF0200D51643114FFE607E68F6
:1017D0004F689643BF0300D516430D4F7E603E68A9
:1017E0004F689643FF0300D51643094A16605B1CF9
:1017F0000A681646DE4000D03FE7F8BD0010024000
:10180000000001400004004800080048000C0048A7
:10181000000401400069084000D001207047002A00
:1018200001D0816170478162704700000148806883
:10183000704700003800002070B5024640325378EF
:10184000202B1CD11378012B19D0012313702424D1
:101850005470046825689D432560046825681E034C
:10186000B5432560046825680D432560006801685C
:1018700019430160202050700020107070BD0220BC
:1018800070BD70B5024640325378202B1BD11378BF
:10189000012B18D0012414702423537003681D6891
:1018A000A5431D6005682B680F263602B343090265
:1018B00019432960006801682143016020205070AD
:1018C0000020107070BD022070BD000070B50400D3
:1018D00006D02546403568780026002802D005E06D
:1018E000012070BD2E70204600F0EAF824206870B8
:1018F000206801684908490001600F2160680906F5
:1019000088432168086121688A680120C0038243F6
:101910008A60E1680129A1682FD021229202114337
:10192000226891600121E268C902022A2268536894
:1019300025D08B43536021684A68124B1A434A6092
:101940002168CA688243CA60616920690843A16945
:10195000090208432168C860216AE06908432168D8
:10196000086020680168012211430160666420203C
:1019700068702663AE70002070BD0143D0E70B4352
:10198000D8E7000000800002FFB505460446403558
:10199000687881B0202877D12878012874D0012078
:1019A0002870FFF743FF0746012200901923D10357
:1019B000204600F0B9FD002851D121206870102088
:1019C000A870002666640398606204996185666366
:1019D000628D3949FF2A03D9FF222285CB0206E016
:1019E000628D228501235B061204120C0FD022683F
:1019F00000789062606A401C6062608D401E608565
:101A0000208D401E2085401CC2B2009101E00022C2
:101A100000912046029900F071FD16E000F0E8FD0B
:101A200000281CD1606A216800788862606A401CC6
:101A30006062608D401E6085208D401E80B22085D2
:101A4000618D002901D000280CD0608D0A990028F2
:101A50003A462046E2D100F0A0FD00281DD001202A
:101A600005B0F0BD00970022802120460A9B00F0BF
:101A70005BFD0028F3D1608DFF2806D9FF22228567
:101A800001231B060096C4E714E0608D20850096B4
:101A9000208D0123C2B25B06BBE721682020C8610C
:101AA00021684A68054B1A404A606870AE702E7013
:101AB0000020D5E70220D3E70020008000E800FEE8
:101AC00010B586B0044614216846FEF7C1FC1249E1
:101AD000206888421ED1114C6169012080040143B5
:101AE0006161616901400591C02000901220019060
:101AF00000200290032003900120049069460848CA
:101B0000FFF7B6FDE169012040050143E161E169AC
:101B10000140059106B010BD005400400010024085
:101B20000004004802488168027889188160704783
:101B30003800002010B506480168102211430160EA
:101B4000032000F007F800F027F8002010BD000087
:101B50000020024070B504460D4D7D202978C0005C
:101B6000FEF778FC01460B480068FEF773FC00F0B6
:101B70001DFB002809D1042C07D200222146401E5B
:101B800000F02AF800206C6070BD012070BD0000DC
:101B9000380000204400002008B50848816901226F
:101BA00011438161816911400091C26901040A43B6
:101BB000C261C0690840009008BD000000100240EA
:101BC000002805DBC106C90E0120884001490860D4
:101BD0007047000000E100E010B500F025FF10BDE7
:101BE000F8B505460068354CC00352D5E0690026BB
:101BF000C00007D4E16920040143E161E1690140CB
:101C0000012600912E480168C90510D4016882158B
:101C100011430160FFF70AFE074604E0FFF706FEE6
:101C2000C01B642824D826480068C005F6D5206A61
:101C300003273F02384020D06968394081421CD0D8
:101C4000206A226AB843012109040A432262226AF7
:101C50008A4322622062C0070FD0FFF7E7FD0090A1
:101C600008E0FFF7E3FD0099411A1648814201D9C7
:101C70000320F8BD206A8007F3D5206A6968B8435D
:101C800008432062002E04D0E1690120000781434F
:101C9000E1612878C00705D0206BA9688008800022
:101CA000084320632878800605D5206B10218843DF
:101CB000E968084320630020F8BD000000100240DE
:101CC0000070004088130000F8B50F46060059D098
:101CD0003A4D2868C007C00FB84209D228684008AA
:101CE0004000384328602868C007C00FB84249D177
:101CF0003068334C81070CD5400704D56068072154
:101D00000902084360606068F0218843B1680843B5
:101D100060603078C00726D0706801280ED0216836
:101D200002280ED0890700292CDA61688908890009
:101D300001436160FFF77AFD00900DE0216889039F
:101D4000F1E78901EFE7FFF771FD0099411A1D489E
:101D5000814201D90320F8BD60680C2108407168F8
:101D600089008842EFD12868C007C00FB8420BD95C
:101D7000286840084000384328602868C007C00F22
:101D8000B84201D00120F8BD3078400706D5606820
:101D9000072109028843F1680843606000F018F8E1
:101DA0006168094A0906090F515CC8400749086083
:101DB0000320FFF7CFFE0020F8BD00000020024006
:101DC0000010024088130000542F00084400002037
:101DD00010B5104A51680C200B4603400E48042BE6
:101DE00017D0082B15D18B020C4C1B0FE45CD26A68
:101DF0000A4B1207120F10339A5CC90305D5002352
:101E00001946FEF7D5F9214601E02046044900F0C5
:101E1000DCFD10BD0010024000127A00342F0008D3
:101E200000093D00FEB5040070D02078DC4DC007ED
:101E30004AD068680007800F012807D0686800074B
:101E4000800F022809D16868C00306D5286880037E
:101E50003AD560680028E7D036E06168012914D0DF
:101E600001208004002901D0052914D02A6801210D
:101E700009048A432A602968814329606068002830
:101E800016D0FFF7D3FC06460EE0286801210904AE
:101E900008432860F2E7296801432960F5E7FFF766
:101EA000C5FC801B64286ED828688003F7D50BE03A
:101EB000FFF7BCFC064604E0FFF7B8FC801B642873
:101EC000F1D828688003F7D42078012680070028FD
:101ED0003CDA68680007800F07D068680007800F49
:101EE000022809D16868C00306D42868800716D57F
:101EF000E06801280AD112E0E0680028286816D0BE
:101F000030432860FFF792FC074605E043E1FFF706
:101F10008DFCC01B0228C6D828688007F7D5286822
:101F2000F82188432169C900084328600EE0400871
:101F300040002860FFF77AFC074604E0FFF776FCD4
:101F4000C01B0228AFD828688007F7D42078000784
:101F500022D5E0690028686A0ED030436862FFF736
:101F600065FC074604E0FFF761FCC01B02289AD815
:101F7000686A8007F7D50FE0400840006862FFF705
:101F800055FC074605E09DE0FFF750FCC01B02280A
:101F900089D8686A8007F7D420780427400700288A
:101FA00060DA00200190E869C00008D4E969B80649
:101FB0000143E961E96901400120009101907948FC
:101FC0000168C90511D40168821511430160FFF74A
:101FD0002DFC009005E0FFF729FC0099401A6428C9
:101FE00070D870480068C005F5D5A06801280AD0EF
:101FF000002801D0052810D0286A40084000286237
:10200000286AB84301E0286A30432862A0680028A3
:1020100012D0FFF70BFC00900AE0286A38432862D0
:10202000F1E7FFF703FC0099411A5F48814249D864
:10203000286A8007F5D50DE0FFF7F8FB009006E071
:10204000FFF7F4FB0099411A574881423AD8286AB1
:102050008007F5D40198002804D0E9690120000721
:102060008143E9612078C00635D5606901280CD02C
:10207000401D686B23D038436863686B400840009C
:102080006863FFF7D3FB064622E0686B384368635A
:10209000686B30436863FFF7C9FB064604E0FFF74F
:1020A000C5FB801B02285BD8686B8007F7D5686B7F
:1020B000F8218843A169C900084368630BE0B8436D
:1020C0006863F4E74CE0FFF7B1FB801B022847D8B8
:1020D000686B8007F7D4206A00285ED0696809071A
:1020E000890F022942D0012636060228286805D029
:1020F000B0432860FFF79AFB044633E0B043286002
:10210000FFF794FB074604E0FFF790FBC01B022893
:1021100026D828688001F7D4E86AE16A000900013E
:102120000843E862616AA06A084369683D221204B4
:10213000914308436860286830432860FFF776FBC6
:10214000044604E0FFF772FB001B022808D8286849
:102150008001F7D521E0FFF769FB001B022801D9B8
:102160000320FEBD28688001F5D416E00128F8D0D0
:102170006868E96A01221204636A02409A420AD13D
:102180000907E26A090F914205D10F21890408402D
:10219000A16A884201D00120FEBD0020FEBD0000E2
:1021A000001002400070004088130000094910B57B
:1021B000401E884201D9012010BD074C60610321F7
:1021C000081F00F031FC0020A061072020610020E2
:1021D00010BD0000FFFFFF0000E000E0F0B5024688
:1021E0002032137F012B1ED0012515770223537750
:1021F00006687468B3687027BC430F68274377602C
:1022000000680A4CA04205D0094CA04202D0094CFB
:10221000A04204D180244968A343194381605577C3
:1022200000201077F0BD0220F0BD0000002C01401E
:10223000000400400040014070B5040005D0254670
:102240002035687F002802D006E0012070BD002004
:102250002877204600F014F802206877211D2068B6
:1022600000F030FB01204034A071A877E87720709F
:102270006070A070E070207160716877002070BDA0
:1022800008B500680549884207D10548C26902219E
:102290000A43C261C0690840009008BD00040040C4
:1022A00000100240014620314A7F012A01D001205E
:1022B000704702224A770068094A0121904205D0FE
:1022C000084A904202D0084A904204D182685207DC
:1022D000520F062A02D002680A43026000207047AB
:1022E000002C01400004004000400140F8B50546C4
:1022F00004462035287F0026012817D001202877A2
:1023000002206877226890687727FF23B8431B0272
:10231000984390600868502838D00EDC20284FD0B1
:1023200006DC00284CD010281ED149E00220F8BD60
:10233000302845D0402817D13AE060282ED07028A8
:1023400019D001221203801A0FD090420CD1CB6811
:102350004A688968206800F001FB206881680122D2
:1023600092031143816000E001260120687700207C
:1023700028773046F8BDCB684A688968206800F045
:10238000EDFA2168886838438860EEE7CA684968D2
:10239000206800F0F6FA5021206806E0CA68496813
:1023A000206800F0FFFA6021206800F0E2FADCE724
:1023B000CA684968206800F0E4FA40212068F4E720
:1023C000226801461046F0E7FEE701688A69D243B9
:1023D000920701D400228A6200688169C943C90753
:1023E00003D081690122114381617047F7B504462A
:1023F000006882B0816900262746C9064037354605
:102400000092002945DA1021C16132E00398401C96
:102410002FD0FFF70BFA0099411A0398814201D897
:10242000002826D120684168012292031140BA7821
:102430008369DB431B0417D401239B03994213D008
:10244000202A11D0416819434160FFF7EFF900904D
:102450000AE0FFF7EBF901460098081A192803D99A
:1024600020200543012604E020688069C0438006DF
:10247000EFD420688069C043800602D5002EC5D005
:1024800004E0002E02D121682020C8610420054309
:10249000012621688869C20504D50122154312026C
:1024A000CA610126410508D508210D43CA012168EA
:1024B000CA610126800502D40AE0800506D5022003
:1024C000054321680002C861012601E0002E0FD0FB
:1024D0002046FFF77AFF20684168074A11404160B3
:1024E000606C28436064202078700020B8703870D9
:1024F000304605B0F0BD000000E800FE890510B5CB
:10250000890D12041143029C1943026821434900BA
:1025100050684908630D034C2343984308435060B7
:1025200010BD0000FF63FF03F8B51D4617460E46B9
:10253000044626E029462046069AFFF757FF002862
:1025400001D00120F8BD681C1BD0FFF76FF9069978
:10255000401AA84201D8002D13D120688169304665
:1025600088430CD00020B8420BD1616C202001437D
:102570006164403460700020A0702070E1E70120A9
:10258000F1E7206881693046884304D00020B842D2
:10259000D0D00020F8BD0120F9E770B516460D46F1
:1025A00004461EE0324629462046FFF71FFF00285A
:1025B00001D0012070BDFFF739F9801BA84201D876
:1025C000002D0ED120688069C043800609D5616C5A
:1025D000202001436164403460700020A0702070AE
:1025E000E7E720688069C0438006DBD4002070BD27
:1025F00070B516460D46044620E032462946204670
:10260000FFF7F4FE002801D0012070BD681C15D032
:10261000FFF70CF9801BA84201D8002D0ED12068CD
:102620008069C043800709D5616C20200143616443
:10263000403460700020A0702070E5E72068806959
:10264000C0438007D9D4002070BD0000F0B587B02A
:1026500014216846FDF7FCFE2B484269012149041C
:102660000A43426142690A400592426949000A43AD
:102670004261406900220840059009200C21C006F3
:10268000FFF7CDF80122960331462048FFF7C7F83F
:1026900005273F02092001223946C006FFF7BFF88F
:1026A0000C20002400900125092002946946019520
:1026B0000394C006FEF7DCFFF02000901120000418
:1026C0000190092069460294C006FEF7D1FF0096EA
:1026D00003260195029469460C480396FEF7C8FF4D
:1026E00009206946C0060097039601950294FEF7FB
:1026F000BFFF002211460720FFF76EFA0720FFF701
:102700005FFA07B0F0BD000000100240000400486E
:1027100010B51348114901601249416000218160E0
:102720000161416181610122C161C2600162FFF703
:10273000CDF8002801D072B6FEE700210848FFF767
:102740007BF8002801D072B6FEE700210448FFF7AD
:1027500098F8002801D072B6FEE710BD0054004082
:10276000480000202B1D200010B586B000240094E6
:10277000164801940294039404941349059401604B
:10278000172184604160046111498461C160FFF7D1
:1027900053FD002801D072B6FEE70120000300902F
:1027A00069460A48FFF7A2FD002801D072B6FEE78D
:1027B000049404A905480594FFF710FD002801D0F2
:1027C00072B6FEE706B010BD000400409C00002079
:1027D000FFFF0000FEE77047704700B585B0142189
:1027E0006846FDF735FE042000900020019001208E
:1027F000029009206946C006FEF73AFF05B000BD09
:1028000000B585B014216846FDF722FE0420009033
:10281000012001900020039009206946C006FEF7C0
:1028200027FF05B000BD000010B5FFF77BF9064893
:102830004189002901D0491E41818189002901D0A7
:10284000491E818110BD00000000002030B595B008
:1028500030216846FDF7FCFD00240D941294012000
:102860000E94039013940225102009940F94049061
:10287000009500040C9410940A90119408950B9400
:102880006846FFF7CFFA002801D072B6FEE70720AE
:102890000C900E9400210D950F940CA8FFF714FADC
:1028A000002801D072B6FEE720201090139410A8E3
:1028B000FFF796F9002801D072B6FEE715B030BDDB
:1028C00070470000F0B502681E4B1F4C984201D0C3
:1028D000A04203D17025AA434D682A431B4D1C4ECC
:1028E0001C4F98420AD0A04208D01B4CA04205D0F1
:1028F000A84203D0B04201D0B84205D11446032209
:1029000012029443CA6822438024A2434C692243A2
:1029100002608A68C2620A688262984205D0A84250
:1029200003D0B04201D0B84201D10969016301214D
:1029300041610169C90703D0016949084900016182
:10294000F0BD0000002C01400004004000400140A8
:1029500000440140004801400020004030B5846838
:10296000FF252D021B021343AC430B43234383601B
:1029700030BD826870239A430A4307210A4382606C
:10298000704730B5036A046A6408640004628469AD
:10299000F025AC43120122430A24A3430B43826176
:1029A000036230BD30B5046A036A1025AB4303628D
:1029B00083690F252D031203AB431A43A0239C43C5
:1029C000090121438261016230BDF8B5040C8BB26C
:1029D000264682B25E430D0C1046370C584336042F
:1029E00080190021794116466E43370C3604801950
:1029F000794126466E438919F8BD00004900CA0294
:102A00000243100000D004204A0D01D001221043DF
:102A1000044A490D914201D102210843012800D105
:102A200005207047FF0700008307FF22DB0E9A4056
:102A30008907090E9940002808DB830809489B0094
:102A40001B18186890430843186070470007000F70
:102A50000838830804489B001B18D8699043084332
:102A6000D861704700E400E000ED00E030380A284B
:102A700001D2012070470020704710B53220FEF7C8
:102A800079FD302000F042F80520FEF773FD30207C
:102A900000F03CF80120FEF76DFD302000F036F824
:102AA0000A20FEF767FD202000F030F80A20FEF72C
:102AB00061FD282000F02AF80120FEF75BFD0820C8
:102AC00000F024F80120FEF755FD012000F01EF86B
:102AD0000120FEF74FFD0120FEF74CFD062000F01F
:102AE00015F80120FEF746FD0C2000F00FF810BD90
:102AF00010B5002802D0012804D101E0802000E0B8
:102B0000C0200143C8B200F001F810BD1CB5010996
:102B100009010C220B4613436C4623710823194309
:102B20000001617101461143A1711843E0716420F5
:102B30000090042301AA4E210148FEF725FF1CBD89
:102B4000480000201CB5010909010D220B46134362
:102B50006C46237109231943000161710146114339
:102B6000A1711843E07164200090042301AA4E2152
:102B70000148FEF709FF1CBD4800002010B50446BF
:102B800002E0641CFFF7DEFF20780028F9D110BDB9
:102B90001CB5FEF7CFFFFFF759FEFFF757FDFFF714
:102BA000B7FDFFF7E1FD5248FEF747FC0927FF0696
:102BB00001220C213846FEF732FE052100220902CF
:102BC0003846FEF72CFEFFF758FF4A4CA069FDF788
:102BD000F1FC024646480B4647A14830FDF76AFB28
:102BE000E069FDF7E7FC024641480B4647A1AC30DF
:102BF000FDF760FB00210846FFF77AFF3C484830AC
:102C0000FFF7BCFF00210120FFF772FF3848AC300E
:102C1000FFF7B4FF6089002803D0962805D800226A
:102C200004E07D20C000608104E0012208213846D4
:102C3000FEF7F5FDA0890028ECD1FEF771FCFEF748
:102C400019FC2070FEF73CFC6071FEF739FCA071A6
:102C5000FEF736FCE071FEF733FC2072FEF730FC25
:102C6000E081E079608266792682FDF7F9FC05460D
:102C7000A0613046FDF7F4FCE0612846FDF79AFCC0
:102C800002461B480B4625A14830FDF713FB206A7E
:102C9000FDF790FC05460E46E069FDF78BFC024609
:102CA00013480B4622A1AC3001960095FDF702FBBC
:102CB00000210846FFF71CFF0D484830FFF75EFF74
:102CC00000210120FFF714FF0948AC30FFF756FF41
:102CD000616AA06900F094F801D2002200E00122AC
:102CE000012189031748FEF79AFDA08AA08191E788
:102CF0009C000020000000204E6869657420646F0D
:102D00003A2025302E31662043000000446F2061B8
:102D10006D3A2025302E31662525000054454D5052
:102D20003A25302E3166437C7C5345543A000000EE
:102D300048554D503A25302E316625257C7C256638
:102D4000000000000004004810B500290AD00878EF
:102D5000002807D005487844FEF7F4FA002801D08F
:102D6000002010BD0248784410BD0000D6020000CB
:102D7000CE02000070B501250400ED074C4020D4C0
:102D8000441A01D2001B0919C60D4B00F2B2FF2AEA
:102D900029D01B0E2CD000020C02D31A2C43DC408D
:102DA0002843051910D2280A02D3401C6D0611D001
:102DB000761EF6058019FF2A00DA70BDC00DC00529
:102DC00070BD694000F04CF801200543C541521C1C
:102DD000761CE8E764089C40C90161408900E7D19E
:102DE0000124A043E4E71B0E440200D0034870BD59
:102DF000002AFCD1C00FC00770BD00BF0000C07F1B
:102E000001230200DB050A430DD4DA4203D49A42BF
:102E100007D488427047D84214D4D94212D4884289
:102E2000704780427047DA4203D59A42F9D5814211
:102E300070475B004200DA4204D24A00DA4201D213
:102E40008142704710B5024AFDF738FE10BD00BF41
:102E50000900160470B501250400ED074C4022D48A
:102E6000441A02D26C40001B0919C60D4B00F2B285
:102E7000FF2A4BD01B0E50D000020C02D31A2C4359
:102E8000DC40A843051B05D5AD0019D36D08761E9F
:102E9000521E37D0F605280A01D2801970BD704144
:102EA0006D0603D070BD6940FFF76AFF9C400902C0
:102EB0006140490001D0401E70BD0124A04370BD97
:102EC0006D081DD001202B0C01D12D0410302B0ECC
:102ED00001D12D0208302B0F01D12D01001DAB0FA8
:102EE00001D1AD00801CEB0F01D16D00401C6D00C5
:102EF000361A121A680AF5054019012A02DB70BD5C
:102F0000002070BDC036300AC00770BD1B0E4402E1
:102F100001D1FF2B00D1024870BD002AF0D070BD56
:102F20000000C07F03B402487844844603BC604775
:102F3000DBD8FFFF02030405060708090A0B0C0D86
:102F40000E0F10100102030405060708090A0B0CF6
:102F50000D0E0F100000000000000000010203042D
:102F60000607080904000008000000000000000235
:102F7000000100001000000002400000000000A05E
:102F80000000000005400000000000C80000000034
:102F90000C4000000000409C0000000019400000B0
:102FA0000020BCBE0000000034400000BFC91B8EE2
:102FB00000000004B5400000504BCFD06607E2CFC0
:102FC000010000006C4100003E8251AADFEEA734F0
:102FD00001000000D9420000DCB5A0E23A301F97A2
:102FE000FFFFFFFFB4450000FD25A0C8E9A3C14FC6
:102FF000FFFFFFFFFF3F0000000000800000000017
:10300000FF3F000000000080000000004830000882
:103010000000002048000000F80000089030000880
:1030200048000020C8070000140100081C00000030
:1030300043000000F8FFFFFF0C0000000E0000003E
:103040000F0000002E000000000000000000000043
:10305000000000000000000000000000640000000C
:1030600000000000000000000000F0410000F041FE
:103070000000000000000000000000000000000050
:1030800001000000040000000000000000127A00AF
:04000005080000B53A
:00000001FF
